:1000000029C0000037C0000035C0000033C0000028
:1000100031C000002FC000002DC000002BC0000028
:1000200029C0000092C0000025C0000023C00000CD
:1000300021C000001FC000001DC000001BC0000048
:1000400019C0000017C0000015C0000013C0000058
:1000500011C0000011241FBECFE5D4E0DEBFCDBF2C
:1000600020E0A0E6B0E001C01D92A636B207E1F79D
:1000700091D0BAC0C5CF81B3806A81BB82B38F757E
:1000800082BB1ABA8FEF89BB089584E083BF89B71A
:10009000816089BF089580916400813051F028F01B
:1000A000823059F0833069F0089581E080936400D4
:1000B000089582E080936400089583E08093640053
:1000C000089510926400089580916300813099F042
:1000D00028F0823049F08330A9F0089581E08093C0
:1000E00061008093600008958AE08093610085E05C
:1000F00080936000089585E0809361008AE080939A
:10010000600008958AE08093610080936000089504
:100110008091620091E0980F909362008A3011F410
:10012000109262009091620080916100981710F423
:10013000979A01C0979890916200809160009817FB
:1001400010F4959A0895959808951F920F920FB6FE
:100150000F9211242F933F934F935F936F937F934D
:100160008F939F93AF93BF93EF93FF9394DFACDF95
:10017000CFDFFF91EF91BF91AF919F918F917F91D1
:100180006F915F914F913F912F910F900FBE0F9004
:100190001F901895F8946FDF78DF789454E040E072
:1001A00089B380936500852F942F2091650020935B
:1001B0006300209163002370209363002091650009
:1001C00030E03595279535952795209365002FEFDD
:1001D00033ED60E3215030406040E1F700C00000A3
:0C01E0000197009711F7DCCFF894FFCFD7
:00000001FF
