:1000000032C000004BC0000049C0000047C00000E3
:1000100045C0000043C0000041C000003FC00000D8
:100020003DC000007DC0000039C0000037C00000A6
:1000300035C0000033C0000031C000002FC00000F8
:100040002DC000002BC0000029C0000027C0000008
:1000500025C00000AD00B200BA00C900CE00D30038
:10006000DA00E900EE0011241FBECFE5D4E0DEBFC8
:10007000CDBF10E0A0E6B0E0E0E9F2E002C00590FC
:100080000D92A236B107D9F720E0A2E6B0E001C098
:100090001D92A936B207E1F7E6D0F8C0B1CF87B319
:1000A000826187BBBA9888B38D7E88BB81B3806A32
:1000B00081BB82B38F7582BB089584E083BF89B70B
:1000C000816089BF0895809166008F5F809366008C
:1000D000809166008A3011F410926600809166006B
:1000E00090E00895809164008F5F80936400809118
:1000F00064008C3511F4109264008091640090E0EB
:100100000895809165008F5F809365008091650000
:10011000843111F4109265008091650090E008959B
:100120001F920F920FB60F9211242F933F934F936C
:100130005F936F937F938F939F93AF93BF93CF936F
:10014000EF93FF938091680090E08930910508F06B
:100150005CC0FC01E65DFF4F93C0C49A81E08093D0
:10016000680053C0B0DF09970CF44FC082E0809361
:1001700068004BC0B29B03C081E080936000809117
:100180006000811102C01092620083E080936800D9
:100190003CC0C49884E08093680037C0C19A85E071
:1001A0008093680032C08FDF09977CF186E08093EE
:1001B00068002BC0B29B03C081E0809361008091F6
:1001C0006100811102C01092630087E08093680093
:1001D0001CC0C19888E08093680017C080916100BE
:1001E000882319F081E08093630080916000882368
:1001F00019F081E08093620075DF4F9734F0109220
:1002000068001092600010926100C091630079DF75
:1002100021E005970CF020E0222321F0CC2311F0FF
:10022000979A01C09798C09162006BDF21E0059713
:100230000CF020E0222321F0CC2311F0959A01C08C
:100240009598FF91EF91CF91BF91AF919F918F9131
:100250007F916F915F914F913F912F910F900FBEC2
:100260000F901F901895F8941ADF27DF789486B3C3
:100270008093670080916700847080936700F7CF58
:10028000EE0FFF1F0590F491E02D0994F894FFCF35
:0202900001016A
:00000001FF
