:1000000029C0000037C0000035C0000033C0000028
:1000100031C000002FC000002DC000002BC0000028
:1000200029C0000038C0000025C0000023C0000027
:1000300021C000001FC000001DC000001BC0000048
:1000400019C0000017C0000015C0000013C0000058
:1000500011C0000011241FBECFE5D4E0DEBFCDBF2C
:1000600020E0A0E6B0E001C01D92A336B207E1F7A0
:100070003FD06AC0C5CF81B3806A81BB82B38F7520
:1000800082BB1ABA8FEF89BB089584E083BF89B71A
:10009000816089BF08951F920F920FB60F921124AD
:1000A0008F938091600081111DC081E0809360007A
:1000B00080916100813051F028F0823061F083300E
:1000C00079F010C082B38F7582BB0CC082B38F757C
:1000D00082BB979A07C082B38F7582BB959A02C084
:1000E000979A959A8F910F900FBE0F901F90189529
:1000F000F894C1DFCADF789454E040E089B380937C
:100100006200852F942F209162002093610020913E
:1001100061002370209361001092600020916200C2
:1001200030E03595279535952795209362002FEF80
:1001300039E668E1215030406040E1F700C000003E
:0C0140000197009701F7DACFF894FFCF89
:00000001FF
