:1000000032C0000096C00000A5C0000047C000003C
:1000100045C0000043C0000041C000003FC00000D8
:100020003DC00000A8C0000039C0000037C000007B
:1000300035C0000033C0000031C000002FC00000F8
:100040002DC000002BC0000029C0000027C0000008
:1000500025C00000FE0003010D011C012101260145
:100060002F013E01430111241FBECFE5D4E0DEBFC6
:10007000CDBF10E0A0E6B0E0ECE4F3E002C00590F4
:100080000D92A436B107D9F720E0A4E6B0E001C094
:100090001D92A137B207E1F744D156C1B1CF87B362
:1000A000826187BBBA9888B38D7E88BB81B3806A32
:1000B00081BB82B38F7582BB089584E083BF89B70B
:1000C000816089BF0895282F80916E00681710F411
:1000D00010926E0090916E0081E0890F80936E0007
:1000E00081E0291708F080E00895282F80916C00A6
:1000F000681710F410926C0090916C0081E0890FE9
:1001000080936C0081E0291708F080E00895282F83
:1001100080916D00681710F410926D0090916D0041
:1001200081E0890F80936D0081E0291708F080E05D
:1001300008951F920F920FB60F9211248F93809102
:1001400069008F5F809369008F910F900FBE0F90B1
:100150001F9018951F920F920FB60F9211248F9334
:10016000809168008F5F809368008F910F900FBE21
:100170000F901F9018951F920F920FB60F92112497
:100180002F933F934F935F936F937F938F939F939F
:10019000AF93BF93CF93EF93FF93809169008093C8
:1001A0006700809168008093660010926900109249
:1001B000680030916700209165008091610090E0B7
:1001C000831B9109820F911D809365003091660019
:1001D000209164008091600090E0831B9109820F60
:1001E000911D809364008091700090E089309105AA
:1001F00008F06BC0FC01E65DFF4FA0C0C49A81E02F
:100200008093700062C064E688E05DDF882309F4B3
:100210005CC082E08093700058C0B29B03C081E054
:100220008093620080916200811102C010926A0086
:1002300083E08093700049C0C49884E0809370008C
:1002400044C0C19A85E0809370003FC064E688E0B6
:100250003ADF8823D1F186E08093700036C0B29BEC
:1002600003C081E08093630080916300811102C02C
:1002700010926B0087E08093700027C0C19888E0DF
:100280008093700022C080916300882319F081E080
:1002900080936B0080916200882319F081E0809345
:1002A0006A008091650064E620DF882321F01092C7
:1002B0007000109263008091640064E616DF88236A
:1002C00021F01092700010926200C0916B0080913A
:1002D000650064E61CDF882321F0CC2311F0979A97
:1002E00001C09798C0916A008091640064E60FDFB6
:1002F000882321F0CC2311F0959A01C09598FF91A5
:10030000EF91CF91BF91AF919F918F917F916F911D
:100310005F914F913F912F910F900FBE0F901F90C3
:100320001895F894BCDEC9DE789486B380936F008C
:1003300080916F00847080936F00F7CFEE0FFF1FE6
:0C0340000590F491E02D0994F894FFCF93
:04034C001E1E01016F
:00000001FF
