:1000000032C0000096C00000A5C0000047C000003C
:1000100045C0000043C0000041C000003FC00000D8
:100020003DC00000A8C0000039C0000037C000007B
:1000300035C0000033C0000031C000002FC00000F8
:100040002DC000002BC0000029C0000027C0000008
:1000500025C00000FC0001010B011A011F01240151
:100060002D013C01410111241FBECFE5D4E0DEBFCC
:10007000CDBF10E0A0E6B0E0E8E4F3E002C00590F8
:100080000D92A236B107D9F720E0A2E6B0E001C098
:100090001D92AF36B207E1F742D154C1B1CF87B359
:1000A000826187BBBA9888B38D7E88BB81B3806A32
:1000B00081BB82B38F7582BB089584E083BF89B70B
:1000C000816089BF0895282F80916C00681710F413
:1000D00010926C0090916C0081E0890F80936C000D
:1000E00081E0291708F080E00895282F80916A00A8
:1000F000681710F410926A0090916A0081E0890FED
:1001000080936A0081E0291708F080E00895282F85
:1001100080916B00681710F410926B0090916B0047
:1001200081E0890F80936B0081E0291708F080E05F
:1001300008951F920F920FB60F9211248F93809102
:1001400067008F5F809367008F910F900FBE0F90B5
:100150001F9018951F920F920FB60F9211248F9334
:10016000809166008F5F809366008F910F900FBE25
:100170000F901F9018951F920F920FB60F92112497
:100180002F933F934F935F936F937F938F939F939F
:10019000AF93BF93CF93EF93FF93809167008093CA
:1001A0006500809166008093640010926700109251
:1001B000660020916500409163008EE190E0BC01F3
:1001C000621B71099B01240F311D20936300309144
:1001D000640020916200831B9109820F911D80931E
:1001E000620080916E0090E08930910508F06BC04C
:1001F000FC01E65DFF4FA0C0C49A81E080936E00D1
:1002000062C064E688E05FDF882309F45CC082E0B6
:1002100080936E0058C0B29B03C081E08093600061
:1002200080916000811102C01092680083E0809389
:100230006E0049C0C49884E080936E0044C0C19AA7
:1002400085E080936E003FC064E688E03CDF882351
:10025000D1F186E080936E0036C0B29B03C081E08E
:100260008093610080916100811102C01092690049
:1002700087E080936E0027C0C19888E080936E006D
:1002800022C080916100882319F081E08093690089
:1002900080916000882319F081E08093680080914C
:1002A000630064E622DF882321F010926E00109232
:1002B00061008091620064E618DF882321F01092CB
:1002C0006E0010926000C09169008091630064E646
:1002D0001EDF882321F0CC2311F0979A01C0979854
:1002E000C09168008091620064E611DF882321F0EC
:1002F000CC2311F0959A01C09598FF91EF91CF9181
:10030000BF91AF919F918F917F916F915F914F912D
:100310003F912F910F900FBE0F901F901895F8945A
:10032000BEDECBDE789486B380936D0080916D0045
:10033000847080936D00F7CFEE0FFF1F0590F4914E
:08034000E02D0994F894FFCFB1
:020348000101B1
:00000001FF
